{
  "_format": "hh-sol-artifact-1",
  "contractName": "Entrance",
  "sourceName": "contracts/Entrance.sol",
  "abi": [
    {
      "inputs": [],
      "stateMutability": "nonpayable",
      "type": "constructor"
    },
    {
      "anonymous": false,
      "inputs": [
        {
          "indexed": false,
          "internalType": "address",
          "name": "",
          "type": "address"
        },
        {
          "indexed": false,
          "internalType": "uint256",
          "name": "",
          "type": "uint256"
        }
      ],
      "name": "EnterClub",
      "type": "event"
    },
    {
      "anonymous": false,
      "inputs": [
        {
          "indexed": true,
          "internalType": "address",
          "name": "previousOwner",
          "type": "address"
        },
        {
          "indexed": true,
          "internalType": "address",
          "name": "newOwner",
          "type": "address"
        }
      ],
      "name": "OwnershipTransferred",
      "type": "event"
    },
    {
      "inputs": [],
      "name": "checkJoinStatus",
      "outputs": [
        {
          "internalType": "bool",
          "name": "",
          "type": "bool"
        }
      ],
      "stateMutability": "view",
      "type": "function"
    },
    {
      "inputs": [
        {
          "internalType": "address",
          "name": "member",
          "type": "address"
        }
      ],
      "name": "getBlacklistStatus",
      "outputs": [
        {
          "internalType": "bool",
          "name": "",
          "type": "bool"
        }
      ],
      "stateMutability": "view",
      "type": "function"
    },
    {
      "inputs": [],
      "name": "getTotalPeopleIn",
      "outputs": [
        {
          "internalType": "uint256",
          "name": "",
          "type": "uint256"
        }
      ],
      "stateMutability": "view",
      "type": "function"
    },
    {
      "inputs": [],
      "name": "letMeIn",
      "outputs": [
        {
          "internalType": "bytes32",
          "name": "requestId",
          "type": "bytes32"
        }
      ],
      "stateMutability": "nonpayable",
      "type": "function"
    },
    {
      "inputs": [],
      "name": "owner",
      "outputs": [
        {
          "internalType": "address",
          "name": "",
          "type": "address"
        }
      ],
      "stateMutability": "view",
      "type": "function"
    },
    {
      "inputs": [
        {
          "internalType": "bytes32",
          "name": "requestId",
          "type": "bytes32"
        },
        {
          "internalType": "uint256",
          "name": "randomness",
          "type": "uint256"
        }
      ],
      "name": "rawFulfillRandomness",
      "outputs": [],
      "stateMutability": "nonpayable",
      "type": "function"
    },
    {
      "inputs": [],
      "name": "renounceOwnership",
      "outputs": [],
      "stateMutability": "nonpayable",
      "type": "function"
    },
    {
      "inputs": [
        {
          "internalType": "address",
          "name": "member",
          "type": "address"
        },
        {
          "internalType": "bool",
          "name": "status",
          "type": "bool"
        }
      ],
      "name": "setBlacklistStatus",
      "outputs": [],
      "stateMutability": "nonpayable",
      "type": "function"
    },
    {
      "inputs": [
        {
          "internalType": "address",
          "name": "newOwner",
          "type": "address"
        }
      ],
      "name": "transferOwnership",
      "outputs": [],
      "stateMutability": "nonpayable",
      "type": "function"
    }
  ],
  "bytecode": "0x60c060405234801561001057600080fd5b5073b3dccb4cf7a26f6cf6b120cf5a73875b7bbc655b7301be23585060835e02b77ef475b0cc51aa1e07098173ffffffffffffffffffffffffffffffffffffffff1660a08173ffffffffffffffffffffffffffffffffffffffff1660601b815250508073ffffffffffffffffffffffffffffffffffffffff1660808173ffffffffffffffffffffffffffffffffffffffff1660601b8152505050506100c76100bc61010560201b60201c565b61010d60201b60201c565b7f2ed0feb3e7fd2022120aa84fab1945545a9f2ffc9076fd6156fa96eaff4c131160001b60078190555067016345785d8a00006008819055506101d3565b600033905090565b6000600160009054906101000a900473ffffffffffffffffffffffffffffffffffffffff16905081600160006101000a81548173ffffffffffffffffffffffffffffffffffffffff021916908373ffffffffffffffffffffffffffffffffffffffff1602179055508173ffffffffffffffffffffffffffffffffffffffff168173ffffffffffffffffffffffffffffffffffffffff167f8be0079c531659141344cd1fd0a4f28419497f9722a3daafe3b4186f6b6457e060405160405180910390a35050565b60805160601c60a05160601c6117b061020c600039600081816105bd015261098f0152600081816103ec015261095301526117b06000f3fe608060405234801561001057600080fd5b50600436106100935760003560e01c80638da5cb5b116100665780638da5cb5b1461010c57806394985ddd1461012a578063cda0348c14610146578063f2fde38b14610164578063f7af6cac1461018057610093565b806303d29d281461009857806358d2b4a5146100b4578063715018a6146100e45780637ab07720146100ee575b600080fd5b6100b260048036038101906100ad9190610f58565b61019e565b005b6100ce60048036038101906100c99190610f2f565b610275565b6040516100db9190611378565b60405180910390f35b6100ec6102cb565b005b6100f6610353565b6040516101039190611393565b60405180910390f35b610114610591565b60405161012191906112f6565b60405180910390f35b610144600480360381019061013f9190610fbd565b6105bb565b005b61014e610657565b60405161015b9190611378565b60405180910390f35b61017e60048036038101906101799190610f2f565b61073e565b005b610188610836565b604051610195919061153c565b60405180910390f35b6101a6610881565b73ffffffffffffffffffffffffffffffffffffffff166101c4610591565b73ffffffffffffffffffffffffffffffffffffffff161461021a576040517f08c379a0000000000000000000000000000000000000000000000000000000008152600401610211906114bc565b60405180910390fd5b80600660008473ffffffffffffffffffffffffffffffffffffffff1673ffffffffffffffffffffffffffffffffffffffff16815260200190815260200160002060006101000a81548160ff0219169083151502179055505050565b6000600660008373ffffffffffffffffffffffffffffffffffffffff1673ffffffffffffffffffffffffffffffffffffffff16815260200190815260200160002060009054906101000a900460ff169050919050565b6102d3610881565b73ffffffffffffffffffffffffffffffffffffffff166102f1610591565b73ffffffffffffffffffffffffffffffffffffffff1614610347576040517f08c379a000000000000000000000000000000000000000000000000000000000815260040161033e906114bc565b60405180910390fd5b6103516000610889565b565b6000801515600660003373ffffffffffffffffffffffffffffffffffffffff1673ffffffffffffffffffffffffffffffffffffffff16815260200190815260200160002060009054906101000a900460ff161515146103e7576040517f08c379a00000000000000000000000000000000000000000000000000000000081526004016103de9061149c565b60405180910390fd5b6008547f000000000000000000000000000000000000000000000000000000000000000073ffffffffffffffffffffffffffffffffffffffff166370a08231306040518263ffffffff1660e01b815260040161044391906112f6565b60206040518083038186803b15801561045b57600080fd5b505afa15801561046f573d6000803e3d6000fd5b505050506040513d601f19601f820116820180604052508101906104939190610ff9565b10156104d4576040517f08c379a00000000000000000000000000000000000000000000000000000000081526004016104cb9061151c565b60405180910390fd5b336004600083815260200190815260200160002060006101000a81548173ffffffffffffffffffffffffffffffffffffffff021916908373ffffffffffffffffffffffffffffffffffffffff1602179055506001600560003373ffffffffffffffffffffffffffffffffffffffff1673ffffffffffffffffffffffffffffffffffffffff16815260200190815260200160002060006101000a81548160ff02191690831515021790555061058c60075460085461094f565b905090565b6000600160009054906101000a900473ffffffffffffffffffffffffffffffffffffffff16905090565b7f000000000000000000000000000000000000000000000000000000000000000073ffffffffffffffffffffffffffffffffffffffff163373ffffffffffffffffffffffffffffffffffffffff1614610649576040517f08c379a0000000000000000000000000000000000000000000000000000000008152600401610640906114dc565b60405180910390fd5b6106538282610aae565b5050565b600060011515600560003373ffffffffffffffffffffffffffffffffffffffff1673ffffffffffffffffffffffffffffffffffffffff16815260200190815260200160002060009054906101000a900460ff161515146106ec576040517f08c379a00000000000000000000000000000000000000000000000000000000081526004016106e3906114fc565b60405180910390fd5b600360003373ffffffffffffffffffffffffffffffffffffffff1673ffffffffffffffffffffffffffffffffffffffff16815260200190815260200160002060009054906101000a900460ff16905090565b610746610881565b73ffffffffffffffffffffffffffffffffffffffff16610764610591565b73ffffffffffffffffffffffffffffffffffffffff16146107ba576040517f08c379a00000000000000000000000000000000000000000000000000000000081526004016107b1906114bc565b60405180910390fd5b600073ffffffffffffffffffffffffffffffffffffffff168173ffffffffffffffffffffffffffffffffffffffff16141561082a576040517f08c379a00000000000000000000000000000000000000000000000000000000081526004016108219061147c565b60405180910390fd5b61083381610889565b50565b60006108796040518060400160405280601d81526020017f54686572652061726520256420746f74616c20706f65706c6520696e21000000815250600254610ce1565b600254905090565b600033905090565b6000600160009054906101000a900473ffffffffffffffffffffffffffffffffffffffff16905081600160006101000a81548173ffffffffffffffffffffffffffffffffffffffff021916908373ffffffffffffffffffffffffffffffffffffffff1602179055508173ffffffffffffffffffffffffffffffffffffffff168173ffffffffffffffffffffffffffffffffffffffff167f8be0079c531659141344cd1fd0a4f28419497f9722a3daafe3b4186f6b6457e060405160405180910390a35050565b60007f000000000000000000000000000000000000000000000000000000000000000073ffffffffffffffffffffffffffffffffffffffff16634000aea07f0000000000000000000000000000000000000000000000000000000000000000848660006040516020016109c39291906113ae565b6040516020818303038152906040526040518463ffffffff1660e01b81526004016109f09392919061133a565b602060405180830381600087803b158015610a0a57600080fd5b505af1158015610a1e573d6000803e3d6000fd5b505050506040513d601f19601f82011682018060405250810190610a429190610f94565b506000610a648460003060008089815260200190815260200160002054610d7d565b9050600160008086815260200190815260200160002054610a85919061158f565b60008086815260200190815260200160002081905550610aa58482610db9565b91505092915050565b6000600282610abd919061167e565b90506001811415610be457600160026000828254610adb919061158f565b92505081905550610b546040518060400160405280600e81526020017f25732068617320676f7420696e210000000000000000000000000000000000008152506004600086815260200190815260200160002060009054906101000a900473ffffffffffffffffffffffffffffffffffffffff16610dec565b6001600360006004600087815260200190815260200160002060009054906101000a900473ffffffffffffffffffffffffffffffffffffffff1673ffffffffffffffffffffffffffffffffffffffff1673ffffffffffffffffffffffffffffffffffffffff16815260200190815260200160002060006101000a81548160ff021916908315150217905550610c70565b6000600360006004600087815260200190815260200160002060009054906101000a900473ffffffffffffffffffffffffffffffffffffffff1673ffffffffffffffffffffffffffffffffffffffff1673ffffffffffffffffffffffffffffffffffffffff16815260200190815260200160002060006101000a81548160ff0219169083151502179055505b7fddf652275a435e7e990bd51026460c6d798fa7b2bc8b2508dbce727cd2871d8c6004600085815260200190815260200160002060009054906101000a900473ffffffffffffffffffffffffffffffffffffffff1682604051610cd4929190611311565b60405180910390a1505050565b610d798282604051602401610cf792919061144c565b6040516020818303038152906040527f9710a9d0000000000000000000000000000000000000000000000000000000007bffffffffffffffffffffffffffffffffffffffffffffffffffffffff19166020820180517bffffffffffffffffffffffffffffffffffffffffffffffffffffffff8381831617835250505050610e88565b5050565b600084848484604051602001610d9694939291906113d7565b6040516020818303038152906040528051906020012060001c9050949350505050565b60008282604051602001610dce9291906112ca565b60405160208183030381529060405280519060200120905092915050565b610e848282604051602401610e0292919061141c565b6040516020818303038152906040527f319af333000000000000000000000000000000000000000000000000000000007bffffffffffffffffffffffffffffffffffffffffffffffffffffffff19166020820180517bffffffffffffffffffffffffffffffffffffffffffffffffffffffff8381831617835250505050610e88565b5050565b60008151905060006a636f6e736f6c652e6c6f679050602083016000808483855afa5050505050565b600081359050610ec08161171e565b92915050565b600081359050610ed581611735565b92915050565b600081519050610eea81611735565b92915050565b600081359050610eff8161174c565b92915050565b600081359050610f1481611763565b92915050565b600081519050610f2981611763565b92915050565b600060208284031215610f4157600080fd5b6000610f4f84828501610eb1565b91505092915050565b60008060408385031215610f6b57600080fd5b6000610f7985828601610eb1565b9250506020610f8a85828601610ec6565b9150509250929050565b600060208284031215610fa657600080fd5b6000610fb484828501610edb565b91505092915050565b60008060408385031215610fd057600080fd5b6000610fde85828601610ef0565b9250506020610fef85828601610f05565b9150509250929050565b60006020828403121561100b57600080fd5b600061101984828501610f1a565b91505092915050565b61102b816115e5565b82525050565b61103a816115f7565b82525050565b61104981611603565b82525050565b61106061105b82611603565b61166a565b82525050565b600061107182611557565b61107b818561156d565b935061108b818560208601611637565b6110948161170d565b840191505092915050565b60006110aa82611562565b6110b4818561157e565b93506110c4818560208601611637565b6110cd8161170d565b840191505092915050565b60006110e560268361157e565b91507f4f776e61626c653a206e6577206f776e657220697320746865207a65726f206160008301527f64647265737300000000000000000000000000000000000000000000000000006020830152604082019050919050565b600061114b60208361157e565b91507f536f7272792c20746865206d656d62657220697320626c61636b6c69737465646000830152602082019050919050565b600061118b60208361157e565b91507f4f776e61626c653a2063616c6c6572206973206e6f7420746865206f776e65726000830152602082019050919050565b60006111cb601f8361157e565b91507f4f6e6c7920565246436f6f7264696e61746f722063616e2066756c66696c6c006000830152602082019050919050565b600061120b601c8361157e565b91507f686173206e6f74207965742072657175657374656420616363657373000000006000830152602082019050919050565b600061124b60308361157e565b91507f4e6f7220656e6f756768204c494e4b202d2066756e6420636f6e74726163742060008301527f66726f6d207468652066617563657420000000000000000000000000000000006020830152604082019050919050565b6112ad8161162d565b82525050565b6112c46112bf8261162d565b611674565b82525050565b60006112d6828561104f565b6020820191506112e682846112b3565b6020820191508190509392505050565b600060208201905061130b6000830184611022565b92915050565b60006040820190506113266000830185611022565b61133360208301846112a4565b9392505050565b600060608201905061134f6000830186611022565b61135c60208301856112a4565b818103604083015261136e8184611066565b9050949350505050565b600060208201905061138d6000830184611031565b92915050565b60006020820190506113a86000830184611040565b92915050565b60006040820190506113c36000830185611040565b6113d060208301846112a4565b9392505050565b60006080820190506113ec6000830187611040565b6113f960208301866112a4565b6114066040830185611022565b61141360608301846112a4565b95945050505050565b60006040820190508181036000830152611436818561109f565b90506114456020830184611022565b9392505050565b60006040820190508181036000830152611466818561109f565b905061147560208301846112a4565b9392505050565b60006020820190508181036000830152611495816110d8565b9050919050565b600060208201905081810360008301526114b58161113e565b9050919050565b600060208201905081810360008301526114d58161117e565b9050919050565b600060208201905081810360008301526114f5816111be565b9050919050565b60006020820190508181036000830152611515816111fe565b9050919050565b600060208201905081810360008301526115358161123e565b9050919050565b600060208201905061155160008301846112a4565b92915050565b600081519050919050565b600081519050919050565b600082825260208201905092915050565b600082825260208201905092915050565b600061159a8261162d565b91506115a58361162d565b9250827fffffffffffffffffffffffffffffffffffffffffffffffffffffffffffffffff038211156115da576115d96116af565b5b828201905092915050565b60006115f08261160d565b9050919050565b60008115159050919050565b6000819050919050565b600073ffffffffffffffffffffffffffffffffffffffff82169050919050565b6000819050919050565b60005b8381101561165557808201518184015260208101905061163a565b83811115611664576000848401525b50505050565b6000819050919050565b6000819050919050565b60006116898261162d565b91506116948361162d565b9250826116a4576116a36116de565b5b828206905092915050565b7f4e487b7100000000000000000000000000000000000000000000000000000000600052601160045260246000fd5b7f4e487b7100000000000000000000000000000000000000000000000000000000600052601260045260246000fd5b6000601f19601f8301169050919050565b611727816115e5565b811461173257600080fd5b50565b61173e816115f7565b811461174957600080fd5b50565b61175581611603565b811461176057600080fd5b50565b61176c8161162d565b811461177757600080fd5b5056fea2646970667358221220e911606af9cfa0c3615f58e0ec7c055728c4a701c80511452ae36cb006b1a0f264736f6c63430008000033",
  "linkReferences": {},
  "deployedLinkReferences": {}
}